:020000040800F2
:10000000980C0020AD0E00088D0200088F02000839
:1000100093020008970200089B02000800000000FD
:100020000000000000000000000000009F02000827
:10003000A102000800000000A3020008A5020008B9
:10004000C70E0008C70E0008C70E0008C70E00083C
:10005000C70E0008C70E0008C70E0008C70E00082C
:10006000C70E0008C70E0008C70E0008C70E00081C
:10007000C70E0008C70E0008C70E0008C70E00080C
:10008000C70E0008C70E0008C70E0008C70E0008FC
:10009000C70E0008C70E0008C70E0008C70E0008EC
:1000A000C70E0008C70E0008C70E0008C70E0008DC
:1000B000C70E0008C70E00083D350008C70E00082F
:1000C000C70E0008C70E0008C70E0008C70E0008BC
:1000D000C70E0008230E0008C70E0008C70E000850
:1000E000C70E0008C70E0008C70E0008C70E00089C
:1000F000C70E0008C70E0008C70E0008C70E00088C
:10010000C70E0008C70E0008C70E0008C70E00087B
:10011000C70E0008C70E0008C70E0008C70E00086B
:10012000C70E0008C70E0008C70E0008C70E00085B
:1001300000F002F800F06BF80AA090E8000C82448E
:100140008344AAF10107DA4501D100F060F8AFF26B
:10015000090EBAE80F0013F0010F18BFFB1A43F0A5
:1001600001031847CC630000EC6300000A444FF021
:10017000000C10F8013B13F0070408BF10F8014B06
:100180001D1108BF10F8015B641E05D010F8016B4B
:10019000641E01F8016BF9D113F0080F1EBF10F8AF
:1001A000014BAD1C0C1B09D16D1E58BF01F801CBD2
:1001B000FAD505E014F8016B01F8016B6D1EF9D555
:1001C0009142D6D37047000000230024002500266A
:1001D000103A28BF78C1FBD8520728BF30C148BFAA
:1001E0000B607047642903F07D87752903F07A87D7
:1001F000782903F0B187632904F00581732904F09D
:100200000A81002070471FB51FBD10B510BD04F056
:1002100035F91146FFF7F7FF00F008F804F053F93D
:1002200003B4FFF7F2FF03BC00F0A0FD00BF00BF66
:1002300000F032FD4FF4A06000F058FE4FF4E130C2
:1002400000F0A3FD00F046F900F01EF900F0C0F93F
:1002500000F032FA00F05CFC18230AA200210846E4
:1002600000F027FC00F0AEFA0021084601F00FFD77
:1002700007E000F0A7FA182302A20021084600F0C8
:1002800018FCF6E75A48555955000000704700BF62
:10029000FEE700BFFEE700BFFEE700BFFEE77047D6
:1002A00070477047704700000CB500200190009027
:1002B0006C48006840F480306A49086000BF6948B3
:1002C000006800F4003000900198401C01900098F4
:1002D00018B90198B0F5A06FF1D16248006800F438
:1002E000003010B10120009001E000200090009843
:1002F000012843D15C48006840F010005A4908606A
:100300000846006820F0030008600846006840F0D6
:1003100002000860534840685249486008464068F7
:1003200048600846406840F480604860084640687D
:1003300020F47C1048600846406840F4E8104860AB
:100340000846006840F08070086000BF45480068BB
:1003500000F000700028F9D04248406820F0030007
:10036000404948600846406840F00200486000BFCD
:100370003C48406800F00C000828F9D10CBD10B5CD
:10038000FFF792FF10BD10B53648006840F001003D
:10039000344908600846406834490840314948609B
:1003A00008460068324908402E490860084600683F
:1003B00020F4802008600846406820F4FE00486071
:1003C0004FF41F008860FFF7DAFF4FF00060294903
:1003D000086010BD10B5002100200022214B5B6891
:1003E00003F00C0121B1042906D0082928D107E027
:1003F000214B224C236027E01F4B204C236023E03D
:10040000184B5B6803F47010164B5B6803F4803282
:10041000022303EB904022B9194B4343174C23604E
:100420000DE0104B5B6803F4003323B1144B4343DE
:10043000124C236003E0104B4343104C236003E055
:100440000D4B0E4C236000BF00BF064B5B68C3F32F
:1004500003130C4CE15C094B1B68CB40074C236039
:1004600010BD000000100240002002400000FFF814
:10047000FFFFF6FE08ED00E000127A000000002009
:1004800000093D000400002008B50121482001F0CA
:10049000A9FD2020ADF8000010208DF803000320F6
:1004A0008DF802006946094801F016F82021074836
:1004B00001F0BFF82020ADF800006946044801F0C3
:1004C0000BF82021024801F0B4F808BD000C0140EF
:1004D0000018014008B50121442001F083FD1C20D3
:1004E000ADF8000048208DF803006946354800F05B
:1004F000F3FF0120ADF8000028208DF803006946C5
:10050000314800F0E9FF08BD10B5044614B10120E0
:100510002E4908702D480078002837D0102129482E
:1005200001F06DF878B10821264801F068F850B163
:100530000421244801F063F828B10121224801F088
:100540005EF8012822D10A2000F0E3FB00201F49B9
:10055000087010211B4801F052F808B9012010BDA5
:100560000821184801F04BF808B90220F7E70421E8
:10057000144801F044F808B90320F0E701211248BB
:1005800001F03DF801281BD10420E8E710210D48B7
:1005900001F035F8012813D108210A4801F02FF89D
:1005A00001280DD10421074801F029F8012807D1BD
:1005B0000121054801F023F810B901200349087012
:1005C0000020CCE700180140000801401400002082
:1005D00000B587B001214FF4017001F003FD4FF425
:1005E000004001F063FC0220ADF8040000208DF80B
:1005F000070001A92E4800F06FFF2E4800F0E4FC30
:10060000002002908DF80C008DF80D004FF4602052
:1006100004900020059001208DF8180002A92548BB
:1006200000F0F9FC0121234800F021FD214800F0F1
:1006300040FD00BF1F4800F041FD0028FAD11D48D1
:1006400000F046FD00BF1B4800F047FD0028FAD12E
:1006500007B000BD10B50446072301222146154806
:1006600000F071FD0121134800F041FD00BF02219F
:10067000104800F0ADFE0028F9D00E4800F0CAFD89
:1006800010BD2DE9F04107460C460025002608E084
:100690003846FFF7DFFF0544052000F03AFB701CE9
:1006A000C6B2A642F4DBB5FBF4F080B2BDE8F0813F
:1006B000000801400024014000B585B0012104205C
:1006C00001F090FC0121480701F099FC1020ADF8E1
:1006D000100000208DF8130003208DF8120004A9EB
:1006E000214800F0F9FE10211F4800F0A2FF002071
:1006F000009001900290022003906946002001F0D2
:1007000048FA0121002001F061FA0021084601F0B9
:10071000BEFA05B000BD2DE9F0470446204604F0BE
:10072000D1F981461149484604F0EAF881464FF074
:100730008B41484604F0DAF9824604F0B5F80746E2
:100740004FF066320A4B03F003FF054603F0CEFE7E
:100750008146484604F096F985B22946002001F00A
:1007600096FABDE8F08700000008014000007A44D6
:1007700066660A4010B5FE4B19600023FD4CC4F8B4
:100780009831002214E00023FB4C236000F080032A
:100790001BB10123241D236003E00023F64C241D1C
:1007A00023600123F44C23604306180E531CDAB275
:1007B000082AE8DB0123EE4C0C342360ED4CC4F82E
:1007C0008C3110BD30B500241CE004F1B001C8B27A
:1007D0000021FFF7CFFF00210846FFF7CBFF0021E4
:1007E0001020FFF7C7FF002508E0E44901EBC50131
:1007F000085D0121FFF7BEFF681CC5B2802DF4DB48
:10080000601CC4B2082CE0DB30BD00B500218D2097
:10081000FFF7B0FF00211420FFF7ACFF0021AF204D
:10082000FFF7A8FF00BD00B500218D20FFF7A2FF54
:1008300000211020FFF79EFF0021AE20FFF79AFF56
:1008400000BD30B500240CE0002506E00020CB49B7
:1008500001EBC5010855681CC5B2802DF6DB601C94
:10086000C4B2082CF0DBFFF7ADFF30BDF0B5144685
:1008700000267F2801DC3F2900DDF0BD0B46CF17A5
:1008800001EB5777FF10C7F10707FAB2CF1701EB5B
:100890005777FF10A1EBC707FDB2C5F1070701238A
:1008A000BB40DEB24CB1B54B03EBC0039B5C3343A2
:1008B000B24F07EBC007BB5408E0B04B03EBC003DB
:1008C0009B5CB343AD4F07EBC007BB5400BFD4E7FD
:1008D0002DE9F04706460F4690469946DDF820A0E0
:1008E00034460CE03D4606E0524629462046FFF7D6
:1008F000BDFF681CC5B24D45F6DD601CC4B2444561
:10090000F0DDFFF75FFFBDE8F0872DE9F84F804687
:100910000F4616461C46BA462046E31704EB5373AF
:10092000DB1021464FEAE47C04EB5C7C4FEAEC0CE4
:10093000A4EBCC0CBCF1000F02D04FF0010C01E095
:100940004FF0000C6344224604EBD27C4FEA6C0C5F
:1009500003FB0CF303F0FF0BA6F12000C6B2002549
:100960004EE00C2C07D106EB4600854901EB8000D8
:10097000405D009013E0102C05D1824800EB06107A
:10098000405D00900BE0182C07D106EBC6007E49B5
:1009900001EB8000405D009001E0BDE8F88F4FF072
:1009A000000927E0009800F0800028B13946404651
:1009B0000A9AFFF75BFF09E00A9808B9012000E0F6
:1009C0000020024639464046FFF750FF0098400697
:1009D000000E0090781CC7B2A7EB0A00A04205D118
:1009E000574608F1010000F0FF0806E009F1010098
:1009F00000F0FF09B9F1080FD4DB00BF681CC5B2D5
:100A00005D45AEDB00BFC8E710B50246012000E03F
:100A100050430B00A1F10104E1B2F9D110BD2DE961
:100A2000FF4F81B0074691461E460E9D4FF0000ACB
:100A3000002439E0301B401EC1B20A20FFF7E4FF5A
:100A4000B9FBF0F00A21B0FBF1F201FB1208BAF198
:100A5000000F16D1701EA04213DDB8F1000F0ED1A9
:100A60000120AB4605EBDB71491001FB04710090DE
:100A7000C8B22B4620220299FFF747FF12E04FF041
:100A8000010A0120AB4605EBDB71491001FB047143
:100A90000090C8B208F13001CAB22B460299FFF7A4
:100AA00034FF00BF601CC4B2B442C3DB05B0BDE874
:100AB000F08FF8B506460F4615461C4621E004EBBC
:100AC000D4714910C1F18001B14202DA002638190F
:100AD000C7B2C4F14000B84204DA00200646074617
:100AE000FFF7AFFE012000902A78234639463046B2
:100AF000FFF70BFF204604EBD07106EB6101CEB28D
:100B00006D1C28787E2802DC28782028D7DAF8BDEA
:100B100008B501214FF4987001F064FA4820ADF84F
:100B2000000010208DF8030003208DF802006946B4
:100B3000164800F0D1FC4821144800F07AFD03204B
:100B4000ADF800006946124800F0C6FC03211048C9
:100B500000F06FFD4FF40040ADF8000069460D480D
:100B600000F0BAFC4FF40041094800F062FD13E0C8
:100B70008C812242008022428001224270010020AA
:100B8000844C0008F8500008E856000800140140A2
:100B9000001001400020014001203B4908603B4912
:100BA000C1F88C0100203A490860642000F0B1F8D7
:100BB00001203849C1F8BC010021AE20FFF7DAFD61
:100BC0000021D520FFF7D6FD00215020FFF7D2FDF0
:100BD0000021A820FFF7CEFD00213F20FFF7CAFD2E
:100BE0000021D320FFF7C6FD00210846FFF7C2FD14
:100BF00000214020FFF7BEFD00218D20FFF7BAFD48
:100C000000211420FFF7B6FD00212020FFF7B2FDE0
:100C100000210220FFF7AEFD0021A120FFF7AAFD71
:100C20000021C020FFF7A6FD0021DA20FFF7A2FD7A
:100C300000211220FFF79EFD00218120FFF79AFD81
:100C40000021EF20FFF796FD0021D920FFF792FD4C
:100C50000021F120FFF78EFD0021DB20FFF78AFD48
:100C600000213020FFF786FD0021A420FFF782FD40
:100C70000021A620FFF77EFD0021AF20FFF77AFDBF
:100C8000FFF7DFFD08BD000098812242008022426C
:100C9000BC0122420000224210B56FF0040000F0B7
:100CA00074F92E4800682E49B0FBF1F02D49087008
:100CB0000846007800EB4001C1EBC0104FF6FF7111
:100CC00001EAC0002849088010BD0146254A127873
:100CD0004A434FF0E0235A6100229A611A46126992
:100CE00042F001021A6100BF4FF0E022106900F0EB
:100CF00001021AB100F48032002AF5D04FF0E02250
:100D0000126922F001024FF0E0231A6100229A6179
:100D100070470146144A12884A434FF0E0235A6153
:100D200000229A611A46126942F001021A6100BF5C
:100D30004FF0E022106900F001021AB100F4803295
:100D4000002AF5D04FF0E022126922F001024FF0A4
:100D5000E0231A6100229A61704700000000002021
:100D600000127A001600002018000020014600BF83
:100D7000704700BF494A128802F04002002AF9D0A9
:100D8000C2B2464B1B1D1A80704710B586B0044690
:100D9000012144F2040001F025F94FF40070ADF890
:100DA000140003208DF8160018208DF8170005A9EF
:100DB0003B4800F091FB4FF48060ADF81400042034
:100DC0008DF8170005A9364800F086FB25208DF820
:100DD000000003208DF801008DF8020001208DF83D
:100DE0000300684600F087F801940020ADF8080081
:100DF000ADF80A00ADF80C00ADF810000C20ADF80D
:100E00000E0001A9254800F0F8FC012240F225510E
:100E1000224800F08AFD0121204800F07AFD06B04A
:100E200010BD10B540F225511C4800F063FE10B310
:100E30001A4800F0DFFDC4B21A48008800F40040F0
:100E4000C8B91848008800F4804060B10A2C03D06B
:100E500000201449088020E01248008840F4004037
:100E60001049088019E00D2C06D10E48008840F486
:100E700080400C49088010E00A480088C0F30D004B
:100E800009490C5407480088401C06490880084658
:100E90000088C72801DD0020088010BD003801400F
:100EA000000801402000002070050020094880470C
:100EB00009480047FEE7FEE7FEE7FEE7FEE7FEE73C
:100EC000FEE7FEE7FEE7FEE704480549054A064B54
:100ED00070470000870300083101000898060020D1
:100EE000980C002098080020980800203149014300
:100EF000314A1160704770B5002100230F22C47879
:100F000004B32D4C246804F4E064C4F5E064210AC1
:100F1000C1F10403CA40447804FA03F18478144010
:100F200021430901254C0678A155047804F01F05DA
:100F30000124AC4005786D11AD0005F1E025C5F840
:100F4000004109E0047804F01F050124AC401C4D69
:100F50000678761145F8264070BD1A4A0A400243C9
:100F6000154B1B1F1A60704739B1134A121D1268C6
:100F70000243114B1B1D1A6006E00F4A121D126836
:100F800082430D4B1B1D1A607047042808D14FF097
:100F9000E021096941F004014FF0E022116107E00E
:100FA0004FF0E021096921F004014FF0E0221161C6
:100FB000704700000000FA050CED00E000E400E0DE
:100FC00080E100E080FFFF1F10B50446FA4884422C
:100FD00008D10121401501F01FF80021601501F032
:100FE0001BF817E0F548844208D10121001501F0F3
:100FF00013F80021201501F00FF80BE0F0488442AF
:1010000008D10121C80301F007F800214FF4004086
:1010100001F002F810BD30B50246002000235068F0
:10102000E84C20400D790C6844EA052420435060C8
:101030009068E54C2040D1E902542C434D7944EAB4
:10104000450420439060D06A20F470000C7C641E3C
:10105000E4B2234340EA0350D06230BD0021016076
:10106000017141718160C16001210174704721B13A
:10107000826842F00102826003E0826822F001028D
:101080008260704721B1826842F48072826003E01E
:10109000826822F480728260704710B50023CBB260
:1010A0001AB144681C43446002E044689C434460B5
:1010B00010BD816841F00801816070470146002041
:1010C0008A6802F008020AB1012000E0002070479F
:1010D000816841F0040181607047014600208A6800
:1010E00002F004020AB1012000E00020704721B1A3
:1010F000826842F4A002826003E0826822F4A002C7
:1011000082607047014600208A6802F480020AB1BA
:10111000012000E00020704710B50A46002100239E
:10112000416821F46041531E41EA4331416010BDE2
:1011300021B1426842F40062426003E0426822F456
:10114000006242607047F0B504460D460020002161
:10115000092D11DDE068A5F10A0606EB4607072612
:1011600006FA07F18843A5F10A0606EB460603FADC
:1011700006F10843E0600CE0206905EB450707260F
:1011800006FA07F1884305EB450603FA06F1084322
:101190002061072A0FDA606B561E06EB86071F26B2
:1011A00006FA07F18843561E06EB860605FA06F195
:1011B0000843606322E00D2A0FDA206BD61F06EB8E
:1011C00086071F2606FA07F18843D61F06EB860618
:1011D00005FA06F10843206310E0E06AA2F10D066B
:1011E00006EB86071F2606FA07F18843A2F10D06D3
:1011F00006EB860605FA06F10843E062F0BD21B170
:10120000826842F48012826003E0826822F48012D5
:10121000826070470146C86C80B2704766484C30A7
:101220000068704721B1426842F48062426003E086
:10123000426822F480624260704721B1426842F401
:101240008052426003E0426822F48052426070475C
:101250000A460021816821F4E04111438160704712
:1012600021B1826842F40042826003E0826822F485
:1012700000428260704721B1826842F402128260AB
:1012800003E0826822F40212826070470146002067
:101290008A6802F400120AB1012000E000207047C1
:1012A000F0B504461546002000220026092911DD6C
:1012B000E068A1F10A0707EB470C072707FA0CF2D1
:1012C0009043A1F10A0707EB470703FA07F210431F
:1012D000E0600CE0206901EB410C072707FA0CF2F3
:1012E000904301EB410703FA07F210432061A06B22
:1012F000C0F30156EF1C06F1010CA7EB0C0707EB3E
:10130000870C1F2707FA0CF29043EF1C06F1010C23
:10131000A7EB0C0707EB870701FA07F21043A0635E
:10132000F0BD10B50A4600210023816B21F4401165
:10133000531E41EA0351816310BD08B50023009399
:101340000090009B0B440093009B1A6008BD08B5F9
:10135000024600200090009201F12800009B1844F2
:1013600000900098006880B208BD0A4600214168DC
:10137000164B1940114341607047416282627047C9
:101380000A460021416821F01F0111434160704766
:1013900040B109490831096841F40001064A0832A0
:1013A000116007E004490831096821F40001024A8C
:1013B00008321160704700000024014000280140FD
:1013C000003C0140FFFEF0FFFDF7F1FFFFFD3FFF96
:1013D0000246002013680B400BB1012000E0002002
:1013E0007047CA430260704770B502460020002370
:1013F00000240B125568CEB205EA060415681D409C
:1014000015B10CB1012000E0002070BD00220A12CD
:10141000D34303607047000010B50446CC488442B3
:1014200008D10121042000F0F7FD0021042000F084
:10143000F3FD46E0C748844208D10121082000F0AE
:10144000EBFD0021082000F0E7FD3AE0C2488442AD
:1014500008D10121102000F0DFFD0021102000F054
:10146000DBFD2EE0BD48844208D10121202000F0A0
:10147000D3FD0021202000F0CFFD22E0B8488442B7
:1014800008D10121402000F0C7FD0021402000F0DC
:10149000C3FD16E0B348844208D10121802000F04A
:1014A000BBFD0021802000F0B7FD0AE0AE48844279
:1014B00007D10121801500F0AFFD0021A01500F03B
:1014C000ABFD10BD10B50121084600F0A5FD0021BF
:1014D000012000F0A1FD10BD2DE9F04102460025DC
:1014E0000026002000230024002791F803C00CF000
:1014F0000F0591F803C00CF0100CBCF1000F03D0E5
:1015000091F802C04CEA050591F800C0BCF1000F4B
:1015100031D0146800202BE04FF0010C0CFA00F3DE
:10152000B1F800C00CEA03069E4220D183004FF0C0
:101530000F0C0CFA03F7BC4305FA03FC4CEA040455
:1015400091F803C0BCF1280F06D14FF0010C0CFA42
:1015500000FCC2F814C00AE091F803C0BCF1480FC7
:1015600005D14FF0010C0CFA00FCC2F810C0401C71
:101570000828D1D31460B1F800C0BCF1FF0F34DDEE
:10158000546800202EE000F1080C4FF0010808FA22
:101590000CF3B1F800C00CEA03069E4221D183008F
:1015A0004FF00F0C0CFA03F7BC4305FA03FC4CEAAE
:1015B000040491F803C0BCF1280F05D100F1080C18
:1015C00008FA0CF8C2F8148091F803C0BCF1480F77
:1015D00007D100F1080C4FF0010808FA0CF8C2F826
:1015E0001080401C0828CED35460BDE8F0814FF62F
:1015F000FF710180022181700421C1707047024691
:10160000002093680B400BB1012000E000207047E0
:101610000146886880B2704702460020D3680B40BC
:101620000BB1012000E0002070470146C86880B27D
:10163000704701617047416170470AB1016100E084
:1016400041617047C16070474FF480320A43826144
:101650008161826182698269704702460020434B42
:1016600018684FF68073184040EA021008433F4B59
:10167000186070473E49C8617047F0B50A460023BC
:1016800000240021002500F00046B6F1004F02D1F1
:10169000364EF16901E0354E7168C0F3034583B2FF
:1016A00000F44016B6F5401F08D121F070612F4EAE
:1016B000766826F070662D4F7E6012E000F480168A
:1016C000B6F5801F06D1032606FA05F4A14341F0C2
:1016D000706106E0460D360103FA06F6B14341F0AB
:1016E000706122B1460D360103FA06F6314300F06F
:1016F0000046B6F1004F02D11C4EF16101E01B4ED5
:101700007160F0BD30B500228B071C0F0F2303FA68
:1017100004F2164B08338C1053F824309343134CC7
:1017200008348D1044F8253023468C1053F82430AB
:101730008C07240F00FA04F423430C4C08348D105A
:1017400044F8253030BD0A49DC310860704700009C
:1017500000080140000C014000100140001401404D
:1017600000180140001C0140002001400000014021
:101770000000204210B50446FB48844209D10121F3
:10178000880300F049FC00214FF4804000F044FC45
:1017900032E0F648844209D10121480400F049FCB6
:1017A00000214FF4003000F044FC25E0F048844272
:1017B00009D10121880400F03CFC00214FF4802075
:1017C00000F037FC18E0EB48844209D10121C8043D
:1017D00000F02FFC00214FF4002000F02AFC0BE069
:1017E000E548844208D10121080500F022FC0021CF
:1017F0004FF4801000F01DFC10BD2DE9F04786B0BD
:1018000005460E460024A24600BFA1460027B08927
:1018100000B100BF2F462C8A4CF6FF700440F088C0
:1018200004432C82AC894EF6F3100440B088318911
:101830000843718908430443AC81AC8A4FF6FF40EA
:101840000440B0890443AC8201A800F05EFBC648A6
:10185000874202D1DDF810A001E0DDF80CA0A889D4
:1018600000F4004040B10AEBCA0000EB0A103168F6
:101870004900B0FBF1F807E00AEBCA0000EB0A10E0
:1018800031688900B0FBF1F86420B8FBF0F0040186
:101890002009642101FB1089A88900F4004040B1AF
:1018A000322000EBC900B0FBF1F000F00700044368
:1018B00008E0322000EB09106421B0FBF1F000F0E9
:1018C0000F0004432C8106B0BDE8F0874FF4165199
:1018D000016000218180C18001810C2141810021B2
:1018E0008181704710B502460020108A4FF2FF0335
:1018F00018400B884C8823438C882343CC8823438F
:101900001843108210BD0021018041808180C18078
:10191000704721B1828942F40052828104E08289B9
:101920004DF6FF731A4082817047F0B503460024DC
:1019300000260025002040F66A17B94200D100BFFA
:101940001846C1F3421401F01F06012707FA06F5F5
:10195000012C01D10C3004E0022C01D1103000E048
:1019600014301AB107682F43076002E00768AF43DD
:101970000760F0BD1AB1838A0B43838202E0838A39
:101980008B4383827047028A4FF6F0731A400282BB
:10199000028A0A430282704782894FF2FF731A401B
:1019A000828182890A438281704721B1828942F013
:1019B0000202828104E082894FF6FD731A4082811F
:1019C0007047028A4FF6DF731A400282028A0A4386
:1019D0000282704721B1028A42F48042028204E00E
:1019E000028A4BF6FF731A4002827047C1F3080265
:1019F0008280704701468888C0F30800704781895B
:101A000041F0010181817047028BD2B20283028BC7
:101A100042EA012202837047028B02F47F42028372
:101A2000028B0A430283704721B1828A42F020026E
:101A3000828204E0828A4FF6DF731A408282704706
:101A400021B1828A42F01002828204E0828A4FF63B
:101A5000EF731A408282704721B1828A42F00802F5
:101A6000828204E0828A4FF6F7731A4082827047BE
:101A700021B1828942F40042828103E08289C2F36B
:101A80000E028281704721B1828A42F40062828212
:101A900004E0828A4FF2FF731A4082827047828A82
:101AA0004FF6FB731A408282828A0A438282704711
:101AB00021B1828A42F00202828204E0828A4FF6D9
:101AC000FD731A408282704702460020B1F5007F04
:101AD00000D100BF13880B400BB1012000E00020B3
:101AE000704701F40072B2F5007F00D100BFCA4315
:101AF0000280704770B502460024002300250020B4
:101B000040F66A16B14200D100BFC1F3421501F0A0
:101B10001F03012606FA03F3012D02D196893340F3
:101B200006E0022D02D1168A334001E0968A334046
:101B30000C12012606FA04F41688344013B10CB1D5
:101B4000012000E0002070BD10B50022002340F607
:101B50006A14A14200D100BF0A1201249440A3B22A
:101B6000DC43048010BD0000003801400044004008
:101B700000480040004C00400050004010B50121DA
:101B8000480700F056FA00214FF0005000F051FADB
:101B900010BD30B5002200235A4C226840F6FE7476
:101BA0008440A243D1E900452C438D682C43CD6885
:101BB00044EA050303FA00F42243524C226030BD8C
:101BC0000021016041608160C160704739B14D4AB8
:101BD0001268012383401A434A4B1A6006E0494ABF
:101BE0001268012383409A43464B1A60704741B103
:101BF000444A12684FF4805383401A43414B1A60A1
:101C000007E0404A12684FF4805383409A433D4BAB
:101C10001A60704710B551B13A4A121D1268040992
:101C20000123A3401A43374B1B1D1A6009E0354AB4
:101C3000121D126804090123A3409A43314B1B1D56
:101C40001A6010BD40B12F49091D096841F0030118
:101C50002C4A121D116007E02A49091D096821F06C
:101C60000301284A121D1160704710B53AB1254B87
:101C70001B6801FA00F42343224C236006E0214B49
:101C80001B6801FA00F4A3431E4C236010BD08B585
:101C9000002200921B4A009200F10802009B1A44A5
:101CA0000092009A116008BD08B500220092154A02
:101CB000009200F11402009B1A440092009A1160F5
:101CC00008BD30B500240023082802D142EA0124CF
:101CD00001E042EA01440B4B00F120052B441C605B
:101CE00030BD08B5014600200090064800902C2029
:101CF00000EB9100009A104400900098006880B2B8
:101D000008BD000000740040DF48006840F001009A
:101D1000DD49086008464068DC490840DA49486007
:101D200008460068DA490840D74908600846006854
:101D300020F4802008600846406820F4FE004860D7
:101D40004FF41F0088607047CF49096821F4803143
:101D5000CD4A11601146096821F480211160B0F567
:101D6000803F03D0B0F5802F0ED106E0C649096848
:101D700041F48031C44A116007E0C349096841F465
:101D8000A021C14A116000E000BF00BF704710B53C
:101D900001460022002300204A11012A02D1BA4C38
:101DA000236806E0022A02D1B74C236A01E0B64C50
:101DB000636A01F01F02012494401C400CB1012011
:101DC00000E0002010BD38B5002000900024002560
:101DD00000BF3120FFF7DBFF05460098401C009054
:101DE0000098B0F5A06F01D0002DF2D03120FFF7A0
:101DF000CEFF08B1012400E00024204638BD014692
:101E00000020A14A106820F0F80040EAC1001060EC
:101E10007047A04908607047024600209A4B5868F6
:101E200020F47C1042EA01031843974B5860704736
:101E300098490866704701460020934A506820F090
:101E400003000843506070478F48406800F00C0062
:101E50007047014600208C4A506820F0F00008438B
:101E60005060704701460020874A506820F4E060C7
:101E700008435060704701460020834A506820F4B0
:101E8000605040EAC1005060704729B17E4A527AE2
:101E900002437D4B5A7204E07B4A527A82437A4B6A
:101EA0005A7270477B49D83108607047014600205C
:101EB000754A506820F44040084350607047002144
:101EC000714A20321170704A82F82010012802D025
:101ED00004280AD104E001216B4A2032117005E088
:101EE0000521694A2032117000E000BF00BF704731
:101EF0006949086070476449096A0143624A11628E
:101F00007047654944390860704730B500210022A8
:101F1000002400235C4D6D6805F00C0121B10429FB
:101F200005D0082923D105E05C4D056022E05B4D1A
:101F300005601FE0544D6D6805F47012524D6D68D8
:101F400005F48034022505EB92421CB9544D5543EB
:101F500005600BE04C4D6D6805F400351DB1504D2A
:101F60005543056002E04D4D5543056002E04B4D81
:101F7000056000BF00BF444D6D6805F0F001090920
:101F8000484D6B5C0568DD4045603F4D6D6805F46C
:101F9000E061090A434D6B5C4568DD4085603A4D60
:101FA0006D6805F46051C90A3E4D6B5C4568DD40C3
:101FB000C560354D6D6805F44041890B3A4D6B5C49
:101FC000C568B5FBF3F5056130BD29B12E4A5269EC
:101FD00002432D4B5A6104E02B4A526982432A4B3B
:101FE0005A61704729B1284A92690243264B9A6187
:101FF00004E0254A92698243234B9A61704729B1D4
:10200000214AD2690243204BDA6104E01E4AD269B8
:1020100082431D4BDA61704729B11B4AD2680243E3
:10202000194BDA6004E0184AD2688243164BDA6032
:10203000704729B1144A12690243134B1A6104E034
:10204000114A12698243104B1A6170471249403994
:10205000086070470F49C86470470B49C8717047E2
:102060000948406A40F0807007494862704701465D
:102070000020054A92680A400AB1012000E00020D1
:102080007047014988727047001002400000FFF855
:10209000FFFFF6FE000042428004424200127A0036
:1020A00000093D00220000203200002010B5044647
:1020B000FE48844208D10121C014FFF7ADFF002182
:1020C000E014FFF7A9FFC4E0B4F1804F08D101216B
:1020D0000846FFF7AEFF00210120FFF7AAFFB8E096
:1020E000F348844208D101210220FFF7A2FF00211A
:1020F0000220FFF79EFFACE0EE48844208D10121A8
:102100000420FFF796FF00210420FFF792FFA0E0D4
:10211000E948844208D101210820FFF78AFF002105
:102120000820FFF786FF94E0E448844208D10121AB
:102130001020FFF77EFF00211020FFF77AFF88E0D4
:10214000DF48844208D101212020FFF772FF0021DF
:102150002020FFF76EFF7CE0DA48844208D101219D
:102160004014FFF759FF00216014FFF755FF70E09E
:10217000D548844209D10121C804FFF74DFF002151
:102180004FF40020FFF748FF63E0D048844209D1B4
:1021900001210805FFF740FF00214FF48010FFF7F1
:1021A0003BFF56E0CA48844209D101214805FFF7A8
:1021B00033FF00214FF40010FFF72EFF49E0C54820
:1021C000844208D101214020FFF733FF0021402045
:1021D000FFF72FFF3DE0C048844208D10121802055
:1021E000FFF727FF00218020FFF723FF31E0BB48E6
:1021F000844208D101218015FFF71BFF0021A015A3
:10220000FFF717FF25E0B648844209D101210804F1
:10221000FFF702FF00214FF48030FFF7FDFE18E0CA
:10222000B048844209D101214804FFF7F5FE00219E
:102230004FF40030FFF7F0FE0BE0AB48844208D1CA
:1022400001218804FFF7E8FE00214FF48020FFF70A
:10225000E3FE10BD00220288944B98420ED0994BA9
:1022600098420BD0B0F1804F08D0914B984205D0E6
:10227000904B984202D0904B984204D14FF68F7306
:102280001A404B881A438D4B984207D08C4B98428A
:1022900004D04FF6FF431A40CB881A4302808B8844
:1022A00083850B880385814B98420BD0854B9842E0
:1022B00008D08B4B984205D08A4B984202D08A4B6B
:1022C000984201D10B7A038601238382704770B54F
:1022D000002400220023058C4FF6FE76354005844D
:1022E000028C8388048B4FF68F752C40B51E2C40D2
:1022F0000D882C43751E2A400D892A434D882A4398
:102300006A4DA8420BD06F4DA84208D0744DA84228
:1023100005D0744DA84202D0734DA84213D14FF698
:10232000F7752A404D892A434FF6FB752A408D8860
:102330002A434FF6FF652B404FF6FF552B408D8902
:102340002B43CD892B4383800483CD8885860284EB
:1023500070BD70B5002400220023058C4FF6EF7687
:1023600035400584028C8388048B48F6FF752C4029
:102370004FF6FF452C400D884FF6FF7606EA0525FF
:102380002C434FF6DF752A400D8906EA05152A43CE
:102390004D8806EA05152A43444DA84202D0494D0E
:1023A000A8421DD14FF67F752A404D894FF6FF7622
:1023B00006EA05152A434FF6BF752A408D8806EABE
:1023C00005152A434FF6FF352B404FF2FF752B4082
:1023D0008D8906EA85052B43CD8906EA85052B43C1
:1023E00083800483CD880587028470BD70B5002486
:1023F00000220023058C4FF6FF6635400584028CD1
:102400008388848B4FF68F752C404FF6FC752C40DB
:102410000D882C434FF6FF552A400D894FF6FF7665
:1024200006EA05252A434D8806EA05252A431F4D5D
:10243000A84202D0234DA8421DD14FF2FF752A4079
:102440004D894FF6FF7606EA05252A434FF6FF35FC
:102450002A408D8806EA05252A434EF6FF752B4053
:102460004DF6FF752B408D8906EA05152B43CD8966
:1024700006EA05152B4383808483CD8885870284F3
:1024800070BD70B5002200230024058C4EF6FF7647
:1024900035400584038C8488828B48F6FF752A407A
:1024A0004FF6FF452A400D8820E00000002C014037
:1024B0000004004000080040000C004000100040F4
:1024C0000014004000340140004C01400050014025
:1024D0000054014000180040001C00400020004053
:1024E0000040014000440140004801404FF6FF76A3
:1024F00006EA05252A434DF6FF752B400D8906EAAD
:1025000005352B434D8806EA05352B43FA4DA84285
:1025100002D0FA4DA84208D14BF6FF752C408D89A8
:102520004FF6FF7606EA85152C4384808283CD889A
:10253000A0F84050038470BD828B4FF2FF331A40E5
:102540008283828B4FF6FF7303EA01231A4382834F
:102550007047F0B50C461546002200210026078C76
:102560004EF6FF7C07EA0C070784828B018C4FF63E
:10257000FF7707EA043640F6FF473A404FF6FF7709
:1025800007EA05273A434FF6FF7707EA03373A434E
:10259000D94FB8420ED0D94FB8420BD0B0F1804FCE
:1025A00008D0D74FB84205D0D64FB84202D0D64F48
:1025B000B84206D14DF6FF77394046F4805739438B
:1025C00005E047F6FF57394044F48057394382838A
:1025D0000184F0BD828B4FF6F3731A408283828BA5
:1025E0000A4382837047F0B50C461546002200214D
:1025F0000026078C4FF6FF6C07EA0C070784828BD6
:10260000018C4FF6FF7707EA04264FF60C773A4025
:102610004FF6FF7707EA03172F433A43B64FB84206
:102620000ED0B64FB8420BD0B0F1804F08D0B44FA7
:10263000B84205D0B34FB84202D0B34FB84206D12A
:102640004FF6FF57394046F48077394305E04FF2A3
:10265000FF57394044F48077394382830184F0BDC9
:10266000028B4FF2FF331A400283028B4FF6FF7347
:1026700003EA01231A4302837047F0B50C4615465E
:10268000002200210026078C4FF6EF7C07EA0C079A
:102690000784028B018C4FF6FF7707EA041640F699
:1026A000FF473A404FF6FF7707EA03373A434FF6C2
:1026B000FF7707EA05273A438F4FB8420ED08F4F76
:1026C000B8420BD0B0F1804F08D08D4FB84205D042
:1026D0008C4FB84202D08C4FB84206D14FF6DF770C
:1026E000394046F01007394305E04FF65F7739402F
:1026F00044F01007394302830184F0BD028B4FF68A
:10270000F3731A400283028B0A4302837047F0B5C9
:102710000C46154600220021068C4FF6FE773E40FF
:102720000684028B018C4FF60C7632407E1C06EA42
:1027300003162E433243704EB0420ED06F4EB0425D
:102740000BD0B0F1804F08D06D4EB04205D06D4E29
:10275000B04202D06C4EB04206D14FF6FD76314009
:1027600044F00106314305E04FF6F576314044F080
:102770000106314302830184F0BD70B505460C4665
:102780005D4885420ED05D4885420BD0B5F1804F43
:1027900008D05B48854205D05A48854202D05A4845
:1027A000854200D100E000BF208850B92389A2886B
:1027B00061882846FFF7ABFFE1882846FFF79EFFB8
:1027C00025E0208804280AD12389A2886188284628
:1027D000FFF753FFE1882846FFF742FF17E0208804
:1027E00008280AD12389A28861882846FFF7FBFEC2
:1027F000E1882846FFF7EEFE09E02389A288618878
:102800002846FFF7A6FEE1882846FFF795FE70BD33
:102810002DE9F04105460C4600260127608808B9DD
:10282000022600E00026A088012801D1022700E04E
:1028300001272088A0B92389A28861882846FFF74C
:1028400066FFE1882846FFF759FF23893A4631465B
:102850002846FFF712FFE1882846FFF701FF13E043
:102860002389A28861882846FFF707FFE188284668
:10287000FFF7F6FE23893A4631462846FFF747FF21
:10288000E1882846FFF73AFFBDE8F0810A884B88C7
:102890001A438B881A43CB881A430B891A434B89F6
:1028A0001A438B891A43A0F8442070474FF6FF71F2
:1028B000818000210180C180418001727047002128
:1028C000018041808180C180018141818181C181FC
:1028D0007047002101804180012181800021C18059
:1028E000018170470021018041808180C180018188
:1028F0004181818170470000002C0140003401407B
:102900000004004000080040000C004021B1028893
:1029100042F00102028004E002884FF6FE731A4082
:102920000280704731B1B0F8442042F40042A0F870
:10293000442005E0B0F84420C2F30E02A0F8442081
:1029400070471AB183890B43838102E083898B43EB
:10295000838170478182704741EA0203A0F84830C2
:1029600070471AB183890B43838102E083898B43CB
:102970008381704701894FF6F872114001817047D9
:102980000A46002101894FF68F73194011430181D6
:10299000704730B504460D4629462046FFF7F0FF44
:1029A000208940F00700208130BD2DE9F041044628
:1029B0000D4616461F46602D06D13B460122314684
:1029C0002046FFF75AFE05E03B46012231462046ED
:1029D000FFF79DFE29462046FFF7D2FF208940F0F1
:1029E00007002081BDE8F08130B50C460021018947
:1029F000C9B24FF6FF7505EA032515432543294360
:102A0000018130BD2DE9F04105460E461746984636
:102A1000002443463A4631462846FFF7E5FF2C8915
:102A20004FF6F870044044F007044FF68F700440EE
:102A300044F070042C81BDE8F081F0B504460D46E9
:102A400016461F463B46324629462046FFF7CCFF36
:102A5000208940F480402081F0BD0185828270474A
:102A60000A46002101884FF68F73194011430180F7
:102A70007047F0B50C4615461E4600210022002383
:102A80000189028B038C4FF6F877394021434FF6CA
:102A9000FC473A4040F201173A434FF6DD773B409E
:102AA0004FF6FF7707EA06172F433B430181028366
:102AB0000384F0BD0A460021018B4FF68F73194045
:102AC0001143018370470A460021018B48F6FF73CA
:102AD00019404FF6FF7303EA02231943018370473D
:102AE0000A460021818B4FF68F7319401143818371
:102AF00070470A460021818B48F6FF7319404FF654
:102B0000FF7303EA022319438183704721B10288CE
:102B100042F08002028004E002884FF67F731A4080
:102B20000280704721B1828842F00402828004E072
:102B300082884FF6FB731A408280704721B18288E9
:102B400042F00802828004E082884FF6F7731A4050
:102B50008280704721B1828842F00102828004E0C5
:102B600082884FF6FE731A40828070470A46002121
:102B7000018B4FF6F77319401143018370470A46E2
:102B80000021018B4FF2FF7319404FF6FF7303EAE8
:102B900002231943018370470A460021818B4FF6B7
:102BA000F77319401143818370470A460021818BD6
:102BB0004FF2FF7319404FF6FF7303EA02231943E4
:102BC000818370470A460021018B4FF6FB73194041
:102BD0001143018370470A460021018B4FF6FF33F2
:102BE00019404FF6FF7303EA02231943018370472C
:102BF0000A460021818B4FF6FB73194011438183F4
:102C000070470A460021818B4FF6FF3319404FF67B
:102C1000FF7303EA02231943818370470A460021A8
:102C2000018B4FF67F7319401143018370470A46A9
:102C30000021018BC1F30E014FF6FF7303EA02235B
:102C40001943018370470A460021818B4FF67F7339
:102C500019401143818370470A460021818BC1F3DB
:102C60000E014FF6FF7303EA022319438183704775
:102C70000A460021018C4FF6FD731940114301846F
:102C800070470A460021018C4FF6F7731940114333
:102C9000018470470A460021018C4FF6DF7319400A
:102CA0004FF6FF7303EA02131943018470470A4683
:102CB0000021018C4FF67F7319404FF6FF7303EA32
:102CC00002131943018470470A460021018C4FF614
:102CD000FF5319404FF6FF7303EA0223194301849F
:102CE00070470A460021018C4FF2FF7319404FF6DE
:102CF000FF7303EA02231943018470470A46002147
:102D0000018C4DF6FF7319404FF6FF7303EA02334F
:102D100019430184704730B5002301248C40A3B2CD
:102D2000048C9C430484048C02FA01F5ADB22C435C
:102D3000048430BD30B5002304248C40A3B2048C3D
:102D40009C430484048C02FA01F5ADB22C43048444
:102D500030BD70B503460020002418461830012508
:102D60008D40ACB21D8CA5431D8409B1082909D141
:102D700000EB6100056825F07005056005681543E6
:102D800005600EE00D1FC5F34E052844056825F4C7
:102D9000E045056005684FF6FF7606EA02263543F2
:102DA000056070BD21B1028842F00202028004E099
:102DB00002884FF6FD731A400280704721B10288E5
:102DC00042F00402028004E002884FF6FB731A40CE
:102DD0000280704721B1828842F08002828004E044
:102DE00082884FF67F731A408280704702884FF6C0
:102DF000F7731A40028002880A4302807047828873
:102E00004FF68F731A40828082880A43828070470F
:102E100002894FF6F8731A40028102890A4302813F
:102E2000704702894FF67F731A40028102890A4374
:102E30000281704781847047818570478186704721
:102E40000187704781877047A0F84010704702885B
:102E50004FF6FF431A40028002880A4302807047FF
:102E60000146888E70470146088F70470146888F5B
:102E700070470146B1F8400070470146888C7047A2
:102E80000146088D704702460020138A0B400BB1A3
:102E9000012000E000207047CA430282704730B52D
:102EA0000246002000230024158A05EA01039589C3
:102EB00005EA010413B10CB1012000E0002030BD8F
:102EC000CA4302827047000010B58CB004461E232E
:102ED0000BAA03A9204600F0ABFE0090009810B1A9
:102EE00001200CB010BD9DF82C00044400200B9074
:102EF0000EE040489DF82C2050F8221003A800F066
:102F0000FFFD00B908E09DF82C00401CC0B20B90FA
:102F10009DF82C000728ECD300BF9DF82C00072853
:102F200063D2DFE800F004053C5E6564630000BF27
:102F300031A001F07BF831A001F078F83FA001F05A
:102F400075F84EA001F072F85CA001F06FF86BA06C
:102F500001F06CF879A001F069F886A001F066F83C
:102F60008BA001F063F890A001F060F894A001F04C
:102F70005DF899A001F05AF89EA001F057F8A4A0BE
:102F800001F054F8B0A001F051F8BDA001F04EF8E6
:102F9000C8A001F04BF8D4A001F048F89AE216A0BE
:102FA00001F044F8E0A001F041F800200B900EE0A1
:102FB000ED4800689DF82C2000EBC2004168EBA0B2
:102FC00001F034F89DF82C00401CC0B20B90E6488C
:102FD000007D9DF82C108842EADC07A001F026F85D
:102FE00078E205A001F022F8C4E171E245E219E2BD
:102FF000ECE10000380000200D0A00002D2D2D2DE1
:103000002D2D2D2D2D2D2D2D2D2D2D2D2D2D2D2DF0
:103010002D2D2D2D55534D4152542056332E312DEB
:103020002D2D2D2D2D2D2D2D2D2D2D2D2D2D2D2DD0
:103030002D2D2D2D2D2D2D200D0A0000202020209E
:1030400055534D415254CAC7D3C9414C49454E54BA
:10305000454BBFAAB7A2B5C4D2BBB8F6C1E9C7C930
:10306000B5C4B4AEBFDAB5F7CAD4BBA5BDBBD7E90A
:10307000BCFE2CCDA8B9FD200D0A0000CBFC2CC451
:10308000E3BFC9D2D4CDA8B9FDB4AEBFDAD6FACA6F
:10309000D6B5F7D3C3B3CCD0F2C0EFC3E6B5C4C83E
:1030A000CEBACEBAAFCAFD2CB2A2D6B4D0D02ED2F0
:1030B000F2B4CB2CC4E3BFC90D0A0000D2D4CBE6D6
:1030C000D2E2B8FCB8C4BAAFCAFDB5C4CAE4C8EB12
:1030D000B2CECAFD28D6A7B3D6CAFDD7D62831307E
:1030E0002F3136BDF8D6C629A1A2D7D6B7FBB4AECC
:1030F000A1A2BAAFCAFDC8EB0D0A0000BFDAB5D86D
:10310000D6B7B5C8D7F7CEAAB2CECAFD292CB5A579
:10311000B8F6BAAFCAFDD7EEB6E0D6A7B3D631300F
:10312000B8F6CAE4C8EBB2CECAFD2CB2A2D6A7B399
:10313000D6BAAFCAFDB7B5200D0A0000BBD8D6B5C8
:10314000CFD4CABE2ED0C2D4F6B2CECAFDCFD4CA16
:10315000BEBDF8D6C6C9E8D6C3B9A6C4DC2CD0C259
:10316000D4F6BDF8D6C6D7AABBBBB9A6C4DC2E0D13
:103170000A000000BCBCCAF5D6A7B3D63A77777769
:103180002E6F70656E6564762E636F6D0D0A00009C
:1031900055534D415254D3D037B8F6CFB5CDB3C304
:1031A000FCC1EE3A0D0A00003F3A202020202020EA
:1031B000BBF1C8A1B0EFD6FAD0C5CFA20D0A00006E
:1031C00068656C703A202020BBF1C8A1B0EFD6FA38
:1031D000D0C5CFA20D0A00006C6973743A2020207C
:1031E000BFC9D3C3B5C4BAAFCAFDC1D0B1ED0D0AD2
:1031F0000A00000069643A2020202020BFC9D3C300
:10320000BAAFCAFDB5C44944C1D0B1ED0D0A0A0038
:103210006865783A20202020B2CECAFD3136BDF84C
:10322000D6C6CFD4CABE2CBAF3B8FABFD5B8F12BE4
:10323000CAFDD7D6BCB4D6B4D0D0BDF8D6C6D7AAAE
:10324000BBBB0D0A0A0000006465633A2020202001
:10325000B2CECAFD3130BDF8D6C6CFD4CABE2CBA64
:10326000F3B8FABFD5B8F12BCAFDD7D6BCB4D6B4E3
:10327000D0D0BDF8D6C6D7AABBBB0D0A0A00000045
:1032800072756E74696D653A312CBFAAC6F4BAAF17
:10329000CAFDD4CBD0D0BCC6CAB13B302CB9D8B152
:1032A000D5BAAFCAFDD4CBD0D0BCC6CAB13B0D0A8B
:1032B0000A000000C7EBB0B4D5D5B3CCD0F2B1E072
:1032C000D0B4B8F1CABDCAE4C8EBBAAFCAFDC3FBFB
:1032D000BCB0B2CECAFDB2A2D2D4BBD8B3B5BCFC8E
:1032E000BDE1CAF82E0D0A002D2D2D2D2D2D2D2DD1
:1032F0002D2D2D2D2D2D2D2D2D2D2D2D2D2D2D2DFE
:103300002D2D414C49454E54454B2D2D2D2D2D2D08
:103310002D2D2D2D2D2D2D2D2D2D2D2D2D2D2D2DDD
:103320002D2D2D200D0A00002D2D2D2D2D2D2D2D77
:103330002D2D2D2D2D2D2D2D2D2D2D2D2D2D2D2DBD
:103340002DBAAFCAFDC7E5B5A52D2D2D2D2D2D2DDF
:103350002D2D2D2D2D2D2D2D2D2D2D2D2D2D2D2D9D
:103360002D2D2D2D200D0A007C00002025730D0A27
:1033700000000000EFA000F059FE00200B901AE0C2
:10338000FC4909689DF82C2001EBC20101AB02AA9F
:10339000486803A900F072FCF64800689DF82C10FC
:1033A00050F8312003A9F4A000F040FE9DF82C0055
:1033B000401CC0B20B90EF48007D9DF82C10884255
:1033C000DEDCAFF2CC3000F031FE83E0AFF2D8307B
:1033D00000F02CFE0BAA03A9204600F02BFD9DF85F
:1033E0002C00C8B9694603A800F0BDFB0B909DF8FE
:1033F0002C0020B9E5A0009900F018FE0EE09DF821
:103400002C00042801D002206BE5E3A000F00EFEA2
:103410000120D849C87501E0022062E5DDA000F076
:1034200005FE57E0DBA000F001FE0BAA03A9204631
:1034300000F000FD9DF82C00C8B9694603A800F013
:1034400092FB0B909DF82C0020B9D8A0009900F0B9
:10345000EDFD0EE09DF82C00042801D0022040E58F
:10346000D5A000F0E3FD0020C249C87501E00220AC
:1034700037E5C8A000F0DAFD2CE0C6A000F0D6FDCC
:103480000BAA03A9204600F0D5FC9DF82C00C8B972
:10349000694603A800F067FB0B909DF82C0078B9F3
:1034A000B449009881F8EC00084690F8EC0018B197
:1034B000C6A000F0BBFD07E0CBA000F0B7FD03E025
:1034C00002200EE502200CE5B2A000F0AFFD01E005
:1034D000012006E500BF002003E510B50121C94821
:1034E000FFF7DAFC4FF6FF71C648FFF7A5FC002195
:1034F000C448FFF79FFC00209E49C1F8F00010BDB2
:1035000010B50121BF48FFF7BEFC012808D199483A
:10351000D0F8F0004FF6FF7108449649C1F8F0006A
:10352000B848FFF7AAFC9349D1F8F0100844914934
:10353000C1F8F0000846D0F8F00010BD10B5012128
:10354000B048FFF7ACFC01280AD18A4908698047D6
:103550000021AC48FFF76EFC6421AA48FFF76CFC21
:103560000121A848FFF7ACFC10BD7FB505460C460D
:1035700001210420FEF743FDADF80850ADF80440EA
:103580000020ADF80A00ADF8060001A99D48FEF73D
:1035900061FE012241219B48FFF7D3F91E208DF8DF
:1035A000000003208DF801008DF8020001208DF845
:1035B00003006846FDF79FFC01219248FFF7A6F93A
:1035C0007FBD10B5044604EBC40000EB04100122DB
:1035D000C2EB800081B24FF47A70FFF7C6FF012082
:1035E0006449C87510BD30B595B0054613AB12AA35
:1035F00009A9284600F042FB044614B1204615B044
:1036000030BD0020149026E05A4909689DF85020EA
:1036100001EBC20113AB11AA486801A900F02EFB0F
:1036200004460CB12046EAE709A901A800F068FAAF
:1036300060B99DF844009DF84810884201DD0220E1
:10364000DDE79DF850004B4988750AE09DF8500071
:10365000401CC0B214904748007D9DF8501088422D
:10366000D2DC00BF4348007D9DF85010884201D154
:103670000420C4E714A9284600F04DFC04460CB110
:103680002046BCE79DF850003A4948750020B6E74F
:103690002DE9F0419AB03748847D007DA04202DCDC
:1036A0001AB0BDE8F0813349096801EBC40106ABEB
:1036B00007AA486808A900F0E1FA08A952A000F09A
:1036C000B5FC0026BAE02B48008B0121B140084030
:1036D000D8B122214EA000F0A9FC304600F00EFC2B
:1036E00024492431471839464AA000F09FFC222182
:1036F00047A000F09BFC304600F000FC1D4924313F
:10370000084410A941F826008EE0304600F0F6FB90
:1037100018492431085810A941F826001548C07DE1
:1037200030B910A850F826103BA000F07FFC7BE0D9
:1037300074E000002D2D2D2D2D2D2D2D2D2D2D2D19
:103740002D2D2D2D2D2D2D2D2D2D2D2D2DBAAFCAFD
:10375000FD204944202D2D2D2D2D2D2D2D2D2D2DB0
:103760002D2D2D2D2D2D2D2D2D2D2D2D2D2D2D2D89
:10377000200D0A007C0000202573206964206973F5
:103780003A0D0A3058253038580D0A004845583A45
:10379000305825580D0A00003136BDF8D6C6B2CED5
:1037A000CAFDCFD4CABE210D0A0000004445433AE9
:1037B000256C750D0A0000003130BDF8D6C6B2CEBA
:1037C000CAFDCFD4CABE210D0A00000052756E207A
:1037D00054696D652043616C63756C6174696F6ECB
:1037E000204F4E0D0A00000052756E2054696D6521
:1037F0002043616C63756C6174696F6E204F46463F
:103800000D0A0000000800400D0A25732800000082
:103810002563000025730000256C750010A850F882
:10382000261095A000F002FC9DF81C00401EB0423E
:1038300002D093A000F0FAFB701CC6B29DF81C00E9
:103840008642FFF640AF8FA000F0F0FBFFF745FE89
:103850008D48407D0B280DD2DFE800F0060D151EC7
:1038600027323F4E5F7287008749096851F834005C
:103870008047054690E0844A126852F83410109848
:103880008847054688E0804B1B6853F83420DDE903
:103890001001904705467FE07B4F3F6857F8343072
:1038A00010A807C89847054676E0DFF8DCC1DCF8C9
:1038B00000C05CF8347010A80FC8B84705466BE02C
:1038C0001498DFF8C4C10090DCF800C05CF83470D4
:1038D00010A80FC8B84705465EE0DDE91401DFF81F
:1038E000A8C1CDE90001DCF800C05CF8347010A874
:1038F0000FC8B84705464FE0DDE914121698DFF807
:1039000088C1CDE900120290DCF800C05CF8347088
:1039100010A80FC8B84705463EE0DDE91423DDE9ED
:103920001610DFF864C1CDE90023CDE90210DCF800
:1039300000C05CF8347010A80FC8B84705462BE0EB
:10394000DDE91523DDE91710CDE90123CDE90310E9
:103950001498DFF834C10090DCF800C05CF83470D3
:1039600010A80FC8B847054616E0DDE91623DDE9C3
:103970001810CDE90223CDE90410DDE91401DFF8C8
:1039800008C1CDE90001DCF800C05CF8347010A873
:103990000FC8B847054600BF00BFFFF7B1FD9DF84F
:1039A000180001280CD13848C07D20B9294637A01D
:1039B00000F03CFB07E0294636A000F037FB02E0B0
:1039C00033A000F033FB304890F8EC0088B12E486B
:1039D000D0F8F0000A21B0FBF1F201FB12072A48EF
:1039E000D0F8F000B0FBF1F83A4641462CA000F0C8
:1039F0001DFB00BF54E670B53148008800F400405C
:103A0000002833D02E48057800202E4948551E48FE
:103A100081682C48884704461CB91B49C868804700
:103A200021E02848FFF750FA0546012D00D02C462A
:103A3000CCB1012C06D0022C08D0032C0AD0042CC7
:103A400010D10BE020A000F0F1FA0BE021A000F073
:103A5000EDFA07E022A000F0E9FA03E023A000F06D
:103A6000E5FA00BF00BF00201549088070BD01467F
:103A70000868704701607047305825580000000002
:103A80002C000000290000007C0000203D256C7502
:103A90003B0D0A003D305825583B0D0A0000000040
:103AA00046756E6374696F6E2052756E2054696D31
:103AB000653A25642E2531646D730D0A00000000FF
:103AC0002000002070050020BAAFCAFDB4EDCEF38F
:103AD000210D0A00B2CECAFDB4EDCEF3210D0A00CD
:103AE000B2CECAFDCCABB6E0210D0A00CEB4D5D221
:103AF000B5BDC6A5C5E4B5C4BAAFCAFD210D0A005F
:103B000002460AE010780B78984201D001207047F5
:103B1000107800B902E0521C491CF3E700BF0020F6
:103B2000F5E706E002780A70027802B902E0401C6C
:103B3000491CF7E700BF70470146002005E00A78FE
:103B400002B903E0421CD0B2491CF8E700BF70473D
:103B500010B50246012000E050430B00A1F1010422
:103B6000E1B2F9D110BD2DE9F04307460E4600251C
:103B70004FF00A083C46002030601FE020783928CA
:103B800002DC207830280ADA2078462802DC207807
:103B9000412804DA2078582809D1012D07D120784E
:103BA000412801DB4FF01008681CC5B205E0207801
:103BB00000B904E00120BDE8F083641CDEE700BF2B
:103BC0003C46B8F1100F0FD1032D01DA0220F2E7C5
:103BD0002078302806D16078582803D1A41CA81E6C
:103BE000C5B204E00320E6E70DB90420E3E71BE0DB
:103BF0000DB1681EC5B22078392806DC207830283F
:103C000003DB2078A0F1300902E02078A0F1370929
:103C100029464046FFF79CFF316809FB00103060E1
:103C2000641C207800B900E0E2E700BF0020C2E792
:103C300010B50446002010700BE020780870641C5A
:103C4000491C1078401C10701078984201DB01204C
:103C500010BD2078202802D020780028EDD1002047
:103C6000087000BFF4E70146491C00E0491C0878D1
:103C7000202801D10029F9D1087870472DE9FF4F9C
:103C800085B08046894600270020049003900120DB
:103C900002904FF0000B002544461DE020782028BC
:103CA00016D005F07F00052812DA0DB945F0800521
:103CB00005F07F00042803D120782A2800D00EE0E8
:103CC000207805F07F010DF80100681CC5B202E004
:103CD000852D00D103E0641C20780028DED100BFD0
:103CE0008DB1002005F07F010DF80100CBA16846E1
:103CF000FFF706FF18B900210898017002E00121C2
:103D00000898017000254FF0000A444614E0641C36
:103D10000AF1010000F0FF0A2078202802D0207864
:103D20002A2809D12046FFF79EFF0646282E03D0F9
:103D30002A2E01D0CDF810A02078282802D0207893
:103D40000028E4D14446049810B10498401C04446F
:103D50004FF0000A002654E0207810B94FF0010A15
:103D600050E02078282803D116B9781CC7B213E098
:103D70002078292808D13EB917B1781EC7B201E0D2
:103D80004FF0010A47B93DE02078222804D10EB94E
:103D9000012000E00020064647B9207820282FD0D7
:103DA000207889F8000009F1010929E020782C2801
:103DB00004D101200290681CC5B214E020782028AC
:103DC00011D0207828280ED04DB9BBF1050F06DAA6
:103DD00020780DF80B000BF1010000F0FF0B0298AA
:103DE000401CC0B20290012F0AD10298022807D1CC
:103DF0000298401CC0B202900398401CC0B20390CD
:103E0000641CA9E700BF0398012809D100200DF820
:103E10000B0082A16846FFF773FE08B900200390EB
:103E2000079903980870002089F80000504609B0EF
:103E3000BDE8F08FF0B503461546002000220026AD
:103E4000002455E01F782C2F01D104B901221F78DE
:103E5000292F01D01F780FB904B94AE0002E34D1C0
:103E60001F78302F02DB1F78392F11DD1F78612F6B
:103E700002DB1F78662F0BDD1F78412F02DB1F78D6
:103E8000462F05DD1F78582F02D01F78782F0CD1D0
:103E900002B12EE01F78612F03DB1F78203F0F70E7
:103EA00001E01F780F70491C1FE01F78222F04D1FA
:103EB00002B11EE00126012417E01F78202F14D044
:103EC0001F782C2F11D0FF2613E01F78222F00D14E
:103ED000002402B10DE044B11F785C2F02D15B1CBD
:103EE000471CF8B21F780F70491C471CF8B25B1CC6
:103EF000A8E700BF00270F702E70F0BD024600201B
:103F0000002105E0474B5B5C0344D8B24B1CD9B29F
:103F10009142F7DB70472DE9F043B5B005460F46F7
:103F20000024002604E000213E488155701CC6B2E2
:103F30000A2EF8DB06E06D1C287818B9012035B090
:103F4000BDE8F08328782828F5D16D1C61E034AAFB
:103F500069462846FFF76EFF064635449DF8D000B7
:103F600020B1012827D0FF284CD149E09DF800005E
:103F700000B333A96846FFF7F6FD06460EB10220EE
:103F8000DDE72046FFF7BAFF26490A31339A0A5087
:103F9000A1F12400008B0121A140884321491A3955
:103FA000088304211F480155601CC4B20A2C01DD9E
:103FB0000320C4E726E06846FFF7BEFD401C00F082
:103FC000FF082046FFF79AFF16490A3100EB010966
:103FD00049466846FFF7A5FD12481A38018B0120B3
:103FE000A040014388B20F491A3908830D4800F8F0
:103FF0000480601CC4B20A2C01DD03209FE701E0AD
:1040000002209CE700BF2878292801D0287800B931
:1040100000E09CE700BF3C70002090E7766F696489
:104020000000000096000020704700000FB4044913
:1040300010B503AA029800F0F3F910BC5DF814FB68
:104040001C00002070B5044685690068C10601D5D2
:10405000302600E02026C00707D070BDD4E901213A
:1040600030469047206A401C20626D1EF6D570BD18
:1040700070B5044685690078C00707D170BDD4E9E2
:10408000012120209047206A401C20626D1EF6D539
:1040900070BD70B50C460546012A05D0287880060B
:1040A00000D5EA69002302E0012305E05B1C93428E
:1040B00002D2E05C0028F9D1A869E618C01AA8610C
:1040C000286A184428622846FFF7BCFF04E0D5E9B7
:1040D000012114F8010B9047B442F8D32846FFF7AA
:1040E000C7FF70BD2DE9F041064600241068752910
:1040F000314615A510D0AFF30080002802DA404207
:1041000012A507E031688A0701D511A502E0490729
:1041100004D510A5012401E0AFF3008000210A239B
:1041200006F1240707E0B0FBF3F203FB1200303086
:1041300078541046491C0028F5D123462A463046BB
:10414000BDE8F04100F0FCB8000000002D000000C8
:104150002B0000002000000070B504460D462146EB
:104160001068AFF300802188090502D50F4A7A4410
:1041700002E00E4A7A440E32002104F1240305E0E5
:1041800000F00F060009965D5E54491C0028F7D127
:1041900020780023000704D5702D02D009B1022336
:1041A00011322046BDE8704000F0CAB8D2220000AB
:1041B0002DE9F05F894604464FF0000ADFF874B13C
:1041C000FB44C0F820A02046E1688847002874D04E
:1041D000252806D0D4E901219047206A401C20629E
:1041E000F1E700265F462046E1688847202805461B
:1041F00007DB312D05D2781910F8200C08B10643E1
:10420000F1E7B00701D526F00406C4F81CA000278A
:10421000C4F818A02A2D09D0284600F05FF938B359
:1042200004EB8708303DC8F8185019E059F8041B12
:10423000204604EB87029161E1688847012F05461B
:1042400018D1E069002820DA26F020061DE0D8F811
:10425000180000EB800005EB40003038C8F818006B
:104260002046E1688847054600F038F90028EED17D
:10427000012F0AD02E2D08D12046E16888477F1CE7
:104280000546022F46F02006C4DBA069002803DAA9
:10429000404246F00106A061F00701D026F010066A
:1042A0006C2D0BD0682D09D04C2D39D06A2D35D00E
:1042B000742D35D07A2D33D016E038E0E1682F46E2
:1042C00020468847B842054609D16C2F26D04FF4C6
:1042D0008060E168064320468847054604E06C2F6D
:1042E0001AD04FF4807006430DB3A5F14100192890
:1042F00002D8203546F400664A4629462046266004
:104300004E46FBF76FFF80B101280BD0F61D26F05B
:10431000070000F1080956E74020E4E78020D8E7CD
:104320000020D6E706F104094DE7284652E7206A47
:10433000BDE8F09FA82200007047704770477047A3
:104340002DE9F0470D4699469246044600F12408AF
:104350000168880604D5E06921F01001216000E0C1
:104360000120A84201DD471B00E00027A1697A195E
:1043700002EB0900081AA0612078C00602D420468A
:10438000FFF760FE002608E0D4E901211AF80600D4
:104390009047206A401C761C20624E45F4DB207852
:1043A000C0060AD52046FFF74DFE06E0D4E90121FC
:1043B00030209047206A401C2062381EA7F1010778
:1043C000F4DC07E0D4E9012118F805009047206AE1
:1043D000401C2062281EA5F10105F3DC2046FFF7F2
:1043E00047FE2078000602D50220BDE8F0870120B4
:1043F000FBE710B5436913B1AFF3008001E0FFF7AD
:1044000048FE012010BD127800F124010A7000223C
:104410004A700122EDE711684FF0FF32E9E7000032
:10442000074B70B50D467B4400F011F80446284652
:1044300000F020F810B14FF0FF3070BD204670BD85
:1044400049C9FFFF01694A1C02610878704700B53D
:104450008FB0CDE901310021059105497944CDE9BD
:10446000031011466846FFF7A3FE0FB000BD000021
:10447000E5FFFFFF007B00F080007047754600F00D
:1044800029F8AE4605006946534620F007008546E8
:1044900018B020B5FCF718FDBDE820404FF000062D
:1044A0004FF000074FF000084FF0000B21F007011C
:1044B000AC46ACE8C009ACE8C009ACE8C009ACE85F
:1044C000C0098D4670470446AFF300802046FBF7D5
:1044D000A7FE0000004870473806002030380A2840
:1044E00001D20120704700207047000021F00042F7
:1044F000A2F16052B2F5801F01F0004328BFD2F153
:104500007F6C0BD95FEA001C43EAC20242EB507099
:1045100018BF704728BF20F001007047B2F5801F18
:10452000BCBF184670474FEA410C1CF5001F02D271
:10453000084600F0A2BB70B500F062F900000089E7
:10454000FFF7F6BF4FF00040A0F580007047000075
:104550002DE9C04130B4DFF8A0C23CEA111418BF05
:104560003CEA131400F0EC8081EA03051CEA111404
:1045700044EAD57418BF1CEA131500F0C780A4EBF9
:1045800005044FF0004545EAC12145EAC32341EA4D
:10459000505143EA525304F17F74994204F50034B8
:1045A0004FEAC0204FEAC22208BF904200F09C8030
:1045B0004FEA13650FF24016765D4FEA134506FB8E
:1045C00005F7C7F1807706FB07F74FEAD737A7FB58
:1045D00003687642C8F58038A7FB06CE38BFA8F13D
:1045E000010807FB08E64FF0000EA6FB028CE6FB75
:1045F00003CEDCF1000CCEF1004E38BFAEF1010E5F
:10460000A6FB0C584FF000074FF00005E6FB0E87A5
:10461000A1FB08C6A0FB07CE16EB0E0645F1000570
:10462000E1FB076515F1E04E7EBFA4F580345FEA3B
:1046300046066D4116F1800745F100054FEA172740
:104640004FEA066647EA0567A6F1DE46B6F1805FE7
:104650004FEA15251FD9384624F0010C05EBC4712B
:10466000BCF1FE6F01EB0C1102D8F0BCBDE800817B
:1046700024425CBF01F5801E9EEAC47F02D4F0BCD8
:10468000BDE80081244238D4F0BCA1F1C041BDE8AE
:10469000004100F003B94FEAD22242EA43524FEA06
:1046A000D323A7FB02864FEAD02040EA415007FB04
:1046B00003661EEA0E0F4FEAD12105FB026658BFC2
:1046C000A6EB0056B6EB00564FEA520E4EEAC37EFA
:1046D00018EB0E0E56EB530EBDD518EB02085E41DB
:1046E0007F1C55F10005B6E74FF480154FF0000729
:1046F0004FF000064FF00008ADE7F0BC4FF00000AF
:1047000001F1C04101F00041BDE8008111EA0C1F38
:104710000CEA131500D00CE013EA0C1F00F0258002
:104720004FF00000F0BC81EA030101F00041BDE858
:104730000081F0BC81EA0301BDE8004100F0AEB8A1
:10474000F0BCBDE8004170B500F05AF8097EFC3EAF
:1047500000F007B881EA03014FF0000001F00041CA
:10476000704781EA030100F099B8F0BC4FF00000F7
:104770002249BDE800417047FFFDFBF9F7F5F4F26F
:10478000F0EEEDEBE9E8E6E4E3E1E0DEDDDBDAD8EC
:10479000D7D5D4D3D1D0CFCDCCCBCAC8C7C6C5C44A
:1047A000C2C1C0BFBEBDBCBBBAB9B8B7B6B5B4B361
:1047B000B2B1B0AFAEADACABAAA9A8A8A7A6A5A44C
:1047C000A3A3A2A1A09F9F9E9D9C9C9B9A99999810
:1047D0009797969595949393929191908F8F8E8EB3
:1047E0008D8C8C8B8B8A8989888887878685858440
:1047F00084838382828181800000FF070000F87F2C
:104800000EF1020E2EF0030E5EF8046B364205D454
:10481000012A43EB030515F5001F12D8012841EBCF
:10482000010C1CF5001F0CD80ED14FEAD17C15F5F8
:10483000001F0CEB4C0C0CF1020C08BF4CEBD37CB2
:1048400004E04FF0080C01E04FEAD37C0CEB4C0580
:1048500026FA05F606F00706B6F1040C06D20EEBB2
:10486000860CBDE870404CF0010C6047DFE80CF0AE
:10487000090B02024FF000414FF00000A1F50021AA
:1048800070BD19461046012851EB010418BFD4F53C
:10489000001484BF002001F0004170BD0808A0F59D
:1048A00000114FEA3101704743004FEAD30C4FEA41
:1048B0003C0C43401FBF40070CF1605113F0FE4F0A
:1048C00070471CF0006F03D100200CF000417047CE
:1048D0000CF0004343EA507010B540EACC0000F001
:1048E00086F900BF000000924FEA0001FFF7D6BF33
:1048F0004FF000414FF00000A1F50021704700008B
:104900004FF47F0C1CEAD0121EBF1CEAD11392EAAE
:104910000C0F93EA0C0F00F0858090EA010F48BF5E
:1049200042F4807240F4000C41F400002CF07F410E
:1049300020F07F4000B58142A2EB03020FF2081C79
:10494000ACEB504EC0F100009EF800E04FEA4E0E76
:1049500000FB0EFC38BF49004FEA2C1C02F5FA029E
:104960000CFB0EF34FEACE1E4FEA112C4FEAC12189
:104970000EEB635E42EB22420EFB0CFC4FEA1C5333
:1049800000FB03114FEA112C4FEA01310EFB0CFC26
:104990004FEADC4C00FB0C11C14228BF09184CEB5C
:1049A00003335DF804EB10EB410143EBC250B2F569
:1049B0007C0F38BF704729D512F0F00F1CBF00F1F3
:1049C000C04000F000407047008182838485868764
:1049D00088898B8C8D8E8F919293959697999A9CBE
:1049E0009D9FA0A2A3A5A7A8AAACAEB0B2B3B5B72D
:1049F000B9BCBEC0C2C5C7C9CCCED1D4D7D9DCDF03
:104A0000E2E6E9ECF0F3F7FAFE0000004FEA400CB2
:104A10000CF1807CBCF17E4F28BF7047B0F1C040E4
:104A200000F02BB990EA010F0CEAD11348BF42F411
:104A30008072624538BF634507D213F47F0F16D0EA
:104A400080EA010000F00040704710B500F0CFF898
:104A5000097EFC3E00F005B880EA010000F000404D
:104A6000704780EA010000F0004000F006B912F43F
:104A70007F0F04BF0248704780EA010000F0FDB8D4
:104A80000000C07FC10DD1F19E0206DB4FEA00237A
:104A900043F0004323FA02F07047004207D54FEA83
:104AA0004001B1F1FE4F02D24FF00000704710B547
:104AB00000F09DF849922480002070476FEA2000A2
:104AC00070470000B0FA80F310FA03F2C3F19D03BF
:104AD0000AD0D90501EB1220530638BF704700F108
:104AE000010008BF20F00100704700004FF47F0C68
:104AF0001CEAD0121EBF1CEAD11392EA0C0F93EAF3
:104B00000C0F00F0478090EA010F48BF42F480721A
:104B10004FF0004C4CEA00204CEA012102EB03026A
:104B2000A0FB0113A2F50002002918BF43F0010306
:104B30005B0028BF4FEA330342EB22425FEA132CAB
:104B40004CEBC2502EBFBCEB436FB2F57C0F7047ED
:104B50004FEA036CBCF1004F08BF20F00100B2F532
:104B60007C0F38BF70470BD582F0FF0212F5803FF3
:104B7000C8BF704700F1C040D8BF00F00040704788
:104B800000F5000C5FEA4C0C48BF7047B0F1C04024
:104B900000F073B890EA010F0CEAD11348BF42F459
:104BA0008072624538BF634504D280EA010000F09C
:104BB0000040704710B500F01AF800BF8900013EB0
:104BC00000F007B800F009B85FEA410C5FEA1C6C1E
:104BD00008D080EA010000F050B85FEA400C5FEABC
:104BE0001C6CF6D14FF00040A0F5800070470EF12C
:104BF000020E2EF0030E5EF8044B244204D44FEA5A
:104C00004102B2F17F4F11D84FEA4003B3F17F4F19
:104C10000CD80ED14FEAD07CB2F17F4F0CEB4C0C8C
:104C20000CF1020C08BF4CEBD17C04E04FF0080CF7
:104C300001E04FEAD17C0CEB4C0324FA03F404F0BE
:104C40000704B4F1040C06D20EEB840CBDE810404E
:104C50004CF0010C6047DFE80CF0070802024FF04F
:104C60000040A0F5800010BD0846420018BFD2F1F8
:104C7000807288BF00F0004010BDFF2141EAD05093
:104C8000C0057047000000000000000000000000A8
:104C9000000000003F400000000000000000300065
:104CA000400030004000000009000BC03D000BC078
:104CB0003D00090018C024407FE022403180000000
:104CC000180024C01B000D803240018003801C406E
:104CD00027401C80074000401000600000000000DA
:104CE000000000000000000000001F802040402065
:104CF0000000402020401F80000000000900060046
:104D00001F80060009000000040004003F8004002A
:104D1000040000000010006000000000000000001F
:104D2000040004000400040004000000000000402F
:104D30000000000000000000002001C00600380054
:104D4000400000001F802040204020401F800000C5
:104D5000000010403FC000400000000018C021408B
:104D6000224024401840000010802040244024406D
:104D70001B80000002000D0011003FC00140000038
:104D80003C80244024402440238000001F80244095
:104D900024403440038000003000200027C0380049
:104DA000200000001B802440244024401B80000081
:104DB0001C0022C0224022401F8000000000000092
:104DC0000840000000000000000000000460000037
:104DD00000000000000004000A0011002080404094
:104DE0000900090009000900090000000000404016
:104DF000208011000A000400180020002340240035
:104E0000180000001F802040274029401F4000005C
:104E1000004007C039000F0001C0004020403FC0E3
:104E2000244024401B8000001F8020402040204060
:104E30003080000020403FC0204020401F80000004
:104E400020403FC024402E4030C0000020403FC0E2
:104E500024402E00300000000F001080204022402F
:104E60003380020020403FC0040004003FC02040C7
:104E7000204020403FC02040204000000060202013
:104E800020203FC02000200020403FC024400B00D5
:104E900030C0204020403FC020400040004000C0C3
:104EA0003FC03C0003C03C003FC0000020403FC06A
:104EB0000C4023003FC020001F80204020402040A5
:104EC0001F80000020403FC0244024001800000044
:104ED0001F802140214020E01FA0000020403FC053
:104EE0002440260019C0004018C02440244022401D
:104EF00031800000300020403FC0204030000000E2
:104F000020003F80004000403F80200020003E0005
:104F100001C0070038002000380007C03C0007C06F
:104F200038000000204039C0060039C02040000091
:104F30002000384007C0384020000000304021C029
:104F40002640384020C00000000000007FE04020E4
:104F500040200000000070000C00038000400000B2
:104F60000000402040207FE0000000000000200002
:104F70004000200000000000001000100010001091
:104F800000100010000000004000000000000000C1
:104F9000000002800540054003C0004020003FC0E3
:104FA00004400440038000000000038004400440EB
:104FB0000640000000000380044024403FC0004041
:104FC000000003800540054003400000000004404D
:104FD0001FC0244024402000000002E0055005507E
:104FE0000650042020403FC00440040003C000409D
:104FF0000000044027C00040000000000010001026
:10500000041027E00000000020403FC001400700DE
:1050100004C00440204020403FC000400040000049
:1050200007C0040007C0040003C00000044007C01C
:105030000440040003C0004000000380044004401A
:1050400003800000041007F00450044003800000B7
:10505000000003800440045007F00010044007C023
:105060000240040004000000000006400540054026
:1050700004C00000000004001F8004400040000045
:10508000040007800040044007C0004004000700FF
:1050900004C0018006000400060001C0070001C032
:1050A00006000000044006C0010006C004400000E5
:1050B0000410071004E00180060004000000044012
:1050C00005C00640044000000000000004007BE032
:1050D00040200000000000000000FFF00000000081
:1050E000000040207BE00400000000004000800041
:1050F00040002000200040000000000000000000F0
:1051000000000000000000000000000000001FCCB4
:10511000000C0000000000000000080030006000EB
:105120000800300060000000022003FC1E20022066
:1051300003FC1E200220000000000E1811043FFF97
:1051400010840C78000000000F0010840F3800C09D
:10515000077818840078000000780F8410C41124A8
:105160000E9800E400840008080068007000000049
:10517000000000000000000000000000000007E048
:1051800018182004400200000000400220041818F3
:1051900007E00000000000000240024001800FF024
:1051A00001800240024000000080008000800FF873
:1051B00000800080008000000001000D000E000053
:1051C000000000000000000000000080008000805F
:1051D00000800080008000800000000C000C0000B7
:1051E0000000000000000000000000060018006041
:1051F0000180060018002000000007F008081004D5
:105200001004080807F000000000080408041FFC50
:10521000000400040000000000000E0C1014102414
:10522000104411840E0C000000000C18100411042E
:10523000110412880C700000000000E00320042418
:1052400008241FFC0024000000001F981084110493
:105250001104108810700000000007F00888110485
:10526000110418880070000000001C00100010FCE1
:1052700013001C001000000000000E3811441084C0
:10528000108411440E38000000000700088C104400
:105290001044088807F00000000000000000030C24
:1052A000030C0000000000000000000000010106E7
:1052B000000000000000000000000080014002200B
:1052C000041008081004000002200220022002201E
:1052D0000220022002200000000010040808041030
:1052E000022001400080000000000E001200100C9F
:1052F000106C10800F00000003E00C1813E414245D
:1053000017C4082807D000000004003C03C41C4058
:10531000074000E4001C000410041FFC11041104E9
:1053200011040E880070000003E00C181004100433
:10533000100410081C10000010041FFC10041004BE
:105340001004080807F0000010041FFC11041104E9
:1053500017C410040818000010041FFC11041100E9
:1053600017C010000800000003E00C18100410041F
:1053700010441C780040000010041FFC10840080C2
:10538000008010841FFC10040000100410041FFC97
:1053900010041004000000000003000110011001BF
:1053A0001FFE10001000000010041FFC11040380F9
:1053B0001464181C1004000010041FFC10040004E6
:1053C00000040004000C000010041FFC1F0000FC7F
:1053D0001F001FFC1004000010041FFC0C0403003D
:1053E00000E010181FFC100007F00808100410045B
:1053F0001004080807F0000010041FFC108410803F
:10540000108010800F00000007F0081810241024EE
:10541000101C080A07F2000010041FFC1104110000
:1054200011C011300E0C000400000E1C1104108479
:10543000108410441C3800001800100010041FFCD9
:10544000100410001800000010001FF810040004E1
:10545000000410041FF8100010001E0011E0001CD2
:10546000007013801C0010001FC0103C00E01F00E3
:1054700000E0103C1FC000001004180C163401C0DE
:1054800001C01634180C100410001C00130400FC9A
:1054900013041C00100000000804101C1064108489
:1054A00013041C04101800000000000000007FFE20
:1054B0004002400240020000000030000C00038067
:1054C0000060001C00030000000040024002400297
:1054D0007FFE0000000000000000000020004000EF
:1054E0004000400020000000000100010001000118
:1054F0000001000100010001000040004000200008
:105500000000000000000000000000980124014499
:105510000144014400FC000410001FFC0088010449
:105520000104008800700000000000700088010481
:1055300001040104008800000000007000880104DC
:10554000010411081FFC0004000000F8014401449C
:105550000144014400C800000000010401040FFCE4
:105560001104110411001800000000D601290129BE
:10557000012901C90106000010041FFC008401007C
:105580000100010400FC000400000104190419FCDE
:1055900000040004000000000000000300010101FD
:1055A000190119FE0000000010041FFC0024004037
:1055B00001B4010C010400000000100410041FFCE1
:1055C0000004000400000000010401FC01040100CB
:1055D00001FC0104010000FC010401FC0084010045
:1055E0000100010400FC0004000000F801040104B3
:1055F0000104010400F80000010101FF008501041D
:1056000001040088007000000000007000880104A0
:105610000104010501FF00010104010401FC0084F3
:105620000104010001800000000000CC01240124DD
:10563000012401240198000000000100010007F886
:105640000104010400000000010001F8000400044E
:105650000004010801FC0004010001800170000C3D
:10566000001001600180010001F0010C003001C058
:105670000030010C01F0010000000104018C0074F5
:105680000170018C01040000010101810171000E13
:10569000001801600180010000000184010C013448
:1056A00001440184010C0000000000000000000023
:1056B00001003EFC4002400200000000000000002B
:1056C000FFFF0000000000000000400240023EFC1E
:1056D0000100000000000000000060008000800069
:1056E00040004000200020000000000000000000FA
:1056F00000000000000000000000000000000000AA
:105700000000000000000000000000000000000099
:1057100000000000000000000000000F80380FFEB5
:10572000380F80380000000000000000000000007A
:105730000000000000000100000600000C0000381E
:1057400000003100000600000C00003800003000AE
:10575000000000000000000061800067F807F98089
:105760000061800061800061800061800067F8074F
:10577000F98000618000000000000000000001C00E
:10578000E003E0F00630080418081FFFFE040E08CE
:105790000787F00381E000000000000001F0000630
:1057A0000C00040408060C7001F9C0000E00003B58
:1057B000E000EC18070808040C180003E0000000E3
:1057C0000001E00007F003F818041C08041708079C
:1057D000E1D003C0E00023B0003C08002008000036
:1057E0001000000000000001000031000032000045
:1057F0001C0000000000000000000000000000008D
:105800000000000000000000000000000000000098
:1058100000000000000000007F0001FFC00780F0D2
:105820000C001810000420000200000000000020FE
:1058300000021000040C00180780F001FFC0007F78
:105840000000000000000000000000000000000058
:10585000000000004200006600006600003C0000FE
:10586000180003FFC0001800003C0000660000663E
:1058700000004200000000000800000800000800CE
:1058800000080000080001FFC00008000008000038
:1058900008000008000008000000000000010000EF
:1058A0003100003200001C00000000000000000079
:1058B00000000000000000000000000000000000E8
:1058C00008000008000008000008000008000008A8
:1058D00000000800000800000800000800000000A8
:1058E0000000000000000000380000380000380010
:1058F00000000000000000000000000000000000A8
:105900000000000000000000000600001C00007005
:10591000000180000E0000380000C0000700001CDD
:105920000000300000000000000000007F8001FF48
:10593000E003807006001804000804000806001840
:1059400003807001FFE0007F800000000000000085
:10595000000001000801000801000803FFF807FF2C
:10596000F800000800000800000800000000000027
:1059700000000001C03802C0580400980401180457
:105980000218040418061C1803F81801E0F80000B7
:105990000000000000000001C0E003C0F0040008A7
:1059A00004080804080806180803F41801E7F000C2
:1059B00001E0000000000000000000000300000DF6
:1059C0000000110000610000810803010807FFF8D2
:1059D0000FFFF800010800010800000000000000AF
:1059E00000E007FCD006080806100806100806109C
:1059F00008061838060FF00607C000000000000077
:105A0000000000003F8001FFE0038430020818041A
:105A10001008041008041008071810030FF00007FE
:105A2000C000000000000000000003C000070000EC
:105A30000600000600F80607F806180006E0000752
:105A4000000006000000000000000001E1E003F794
:105A5000F0063410041808041808040C08040C0894
:105A600006161803F3F001C1E0000000000000007A
:105A7000F80003FC3003063804020804020804029C
:105A8000080404100308F001FFC0007F00000000BC
:105A90000000000000000000000000000000000006
:105AA00070380070380070380000000000000000FE
:105AB00000000000000000000000000000000000E6
:105AC00000000000301A00301C0000000000000040
:105AD00000000000000000000000000000000008BE
